{
  "_format": "hh-sol-artifact-1",
  "contractName": "Voting",
  "sourceName": "contracts/Voting.sol",
  "abi": [
    {
      "inputs": [],
      "stateMutability": "nonpayable",
      "type": "constructor"
    },
    {
      "inputs": [
        {
          "internalType": "address",
          "name": "_candidateAddress",
          "type": "address"
        },
        {
          "internalType": "string",
          "name": "_name",
          "type": "string"
        },
        {
          "internalType": "string",
          "name": "_party",
          "type": "string"
        }
      ],
      "name": "addCandidate",
      "outputs": [],
      "stateMutability": "nonpayable",
      "type": "function"
    },
    {
      "inputs": [],
      "name": "candidateCount",
      "outputs": [
        {
          "internalType": "uint256",
          "name": "",
          "type": "uint256"
        }
      ],
      "stateMutability": "view",
      "type": "function"
    },
    {
      "inputs": [
        {
          "internalType": "uint256",
          "name": "",
          "type": "uint256"
        }
      ],
      "name": "candidates",
      "outputs": [
        {
          "internalType": "address",
          "name": "candidateAddress",
          "type": "address"
        },
        {
          "internalType": "string",
          "name": "candidateName",
          "type": "string"
        },
        {
          "internalType": "string",
          "name": "candidateParty",
          "type": "string"
        },
        {
          "internalType": "uint256",
          "name": "voteCount",
          "type": "uint256"
        }
      ],
      "stateMutability": "view",
      "type": "function"
    },
    {
      "inputs": [
        {
          "internalType": "address",
          "name": "_candidateAddress",
          "type": "address"
        }
      ],
      "name": "deleteOneCandidate",
      "outputs": [],
      "stateMutability": "nonpayable",
      "type": "function"
    },
    {
      "inputs": [],
      "name": "electionWinner",
      "outputs": [
        {
          "internalType": "address",
          "name": "",
          "type": "address"
        }
      ],
      "stateMutability": "view",
      "type": "function"
    },
    {
      "inputs": [],
      "name": "getAllCandiates",
      "outputs": [
        {
          "components": [
            {
              "internalType": "address",
              "name": "candidateAddress",
              "type": "address"
            },
            {
              "internalType": "string",
              "name": "candidateName",
              "type": "string"
            },
            {
              "internalType": "string",
              "name": "candidateParty",
              "type": "string"
            },
            {
              "internalType": "uint256",
              "name": "voteCount",
              "type": "uint256"
            }
          ],
          "internalType": "struct Voting.Candidate[]",
          "name": "",
          "type": "tuple[]"
        }
      ],
      "stateMutability": "view",
      "type": "function"
    },
    {
      "inputs": [],
      "name": "getVoters",
      "outputs": [
        {
          "components": [
            {
              "internalType": "string",
              "name": "voterName",
              "type": "string"
            },
            {
              "internalType": "address",
              "name": "voterAddress",
              "type": "address"
            },
            {
              "internalType": "bool",
              "name": "isRegistered",
              "type": "bool"
            }
          ],
          "internalType": "struct Voting.Voter[]",
          "name": "",
          "type": "tuple[]"
        }
      ],
      "stateMutability": "view",
      "type": "function"
    },
    {
      "inputs": [],
      "name": "getVotingStatus",
      "outputs": [
        {
          "internalType": "bool",
          "name": "",
          "type": "bool"
        }
      ],
      "stateMutability": "view",
      "type": "function"
    },
    {
      "inputs": [
        {
          "internalType": "address",
          "name": "_candidateAddress",
          "type": "address"
        }
      ],
      "name": "isCandidateAllowed",
      "outputs": [
        {
          "internalType": "bool",
          "name": "",
          "type": "bool"
        }
      ],
      "stateMutability": "view",
      "type": "function"
    },
    {
      "inputs": [
        {
          "internalType": "address",
          "name": "",
          "type": "address"
        }
      ],
      "name": "isVoted",
      "outputs": [
        {
          "internalType": "bool",
          "name": "",
          "type": "bool"
        }
      ],
      "stateMutability": "view",
      "type": "function"
    },
    {
      "inputs": [
        {
          "internalType": "address",
          "name": "_add",
          "type": "address"
        }
      ],
      "name": "isVoterRegistered",
      "outputs": [
        {
          "internalType": "bool",
          "name": "",
          "type": "bool"
        }
      ],
      "stateMutability": "view",
      "type": "function"
    },
    {
      "inputs": [],
      "name": "resetVoting",
      "outputs": [
        {
          "internalType": "string",
          "name": "",
          "type": "string"
        }
      ],
      "stateMutability": "nonpayable",
      "type": "function"
    },
    {
      "inputs": [],
      "name": "startVoting",
      "outputs": [],
      "stateMutability": "nonpayable",
      "type": "function"
    },
    {
      "inputs": [],
      "name": "stopVoting",
      "outputs": [],
      "stateMutability": "nonpayable",
      "type": "function"
    },
    {
      "inputs": [
        {
          "internalType": "address",
          "name": "_voterAddress",
          "type": "address"
        }
      ],
      "name": "validateVoter",
      "outputs": [],
      "stateMutability": "nonpayable",
      "type": "function"
    },
    {
      "inputs": [
        {
          "internalType": "address",
          "name": "_candidateAddress",
          "type": "address"
        }
      ],
      "name": "vote",
      "outputs": [],
      "stateMutability": "nonpayable",
      "type": "function"
    },
    {
      "inputs": [
        {
          "internalType": "address",
          "name": "_voterAddress",
          "type": "address"
        }
      ],
      "name": "voteCasted",
      "outputs": [
        {
          "internalType": "bool",
          "name": "",
          "type": "bool"
        }
      ],
      "stateMutability": "view",
      "type": "function"
    },
    {
      "inputs": [
        {
          "internalType": "uint256",
          "name": "",
          "type": "uint256"
        }
      ],
      "name": "votedList",
      "outputs": [
        {
          "internalType": "address",
          "name": "",
          "type": "address"
        }
      ],
      "stateMutability": "view",
      "type": "function"
    },
    {
      "inputs": [
        {
          "internalType": "string",
          "name": "_voterName",
          "type": "string"
        },
        {
          "internalType": "address",
          "name": "_voterAddress",
          "type": "address"
        }
      ],
      "name": "voterRegistration",
      "outputs": [],
      "stateMutability": "nonpayable",
      "type": "function"
    },
    {
      "inputs": [
        {
          "internalType": "uint256",
          "name": "",
          "type": "uint256"
        }
      ],
      "name": "voters",
      "outputs": [
        {
          "internalType": "string",
          "name": "voterName",
          "type": "string"
        },
        {
          "internalType": "address",
          "name": "voterAddress",
          "type": "address"
        },
        {
          "internalType": "bool",
          "name": "isRegistered",
          "type": "bool"
        }
      ],
      "stateMutability": "view",
      "type": "function"
    },
    {
      "inputs": [
        {
          "internalType": "address",
          "name": "_voterAddress",
          "type": "address"
        }
      ],
      "name": "votingPermission",
      "outputs": [
        {
          "internalType": "bool",
          "name": "",
          "type": "bool"
        }
      ],
      "stateMutability": "view",
      "type": "function"
    },
    {
      "inputs": [],
      "name": "votingRunning",
      "outputs": [
        {
          "internalType": "bool",
          "name": "",
          "type": "bool"
        }
      ],
      "stateMutability": "view",
      "type": "function"
    }
  ],
  "bytecode": "0x608060405234801561001057600080fd5b5033600260006101000a81548173ffffffffffffffffffffffffffffffffffffffff021916908373ffffffffffffffffffffffffffffffffffffffff160217905550613636806100616000396000f3fe608060405234801561001057600080fd5b50600436106101425760003560e01c80639f381f8c116100b8578063d703df871161007c578063d703df871461036a578063da58c7d914610386578063e22a6231146103b8578063eb2119db146103d4578063f277767c14610404578063fab2f86b1461043457610142565b80639f381f8c146102c4578063a7ae423d146102e0578063a9a981a3146102fe578063cbff75cb1461031c578063cdd722531461034c57610142565b80636dd7d8ea1161010a5780636dd7d8ea146101f05780637fe1f3a51461020c57806380c3477e1461023c578063856e698c1461026c5780638fd42f0a1461028a5780639bcd7fb8146102a657610142565b80630bcfb1b7146101475780630e58a249146101775780631ec6b60a146101955780633477ee2e1461019f578063581c281c146101d2575b600080fd5b610161600480360381019061015c91906120eb565b61043e565b60405161016e9190612159565b60405180910390f35b61017f61047d565b60405161018c9190612159565b60405180910390f35b61019d610657565b005b6101b960048036038101906101b491906120eb565b61074c565b6040516101c99493929190612213565b60405180910390f35b6101da6108bc565b6040516101e79190612281565b60405180910390f35b61020a600480360381019061020591906122c8565b6108d3565b005b610226600480360381019061022191906122c8565b610a72565b6040516102339190612281565b60405180910390f35b610256600480360381019061025191906122c8565b610ac8565b6040516102639190612281565b60405180910390f35b610274610c05565b60405161028191906122f5565b60405180910390f35b6102a4600480360381019061029f919061237c565b610df5565b005b6102ae610fad565b6040516102bb9190612281565b60405180910390f35b6102de60048036038101906102d991906122c8565b610fc0565b005b6102e8611219565b6040516102f59190612570565b60405180910390f35b6103066113fc565b6040516103139190612592565b60405180910390f35b610336600480360381019061033191906122c8565b611402565b6040516103439190612281565b60405180910390f35b610354611422565b60405161036191906126ce565b60405180910390f35b610384600480360381019061037f91906122c8565b611584565b005b6103a0600480360381019061039b91906120eb565b6118cd565b6040516103af939291906126f0565b60405180910390f35b6103d260048036038101906103cd919061272e565b6119bc565b005b6103ee60048036038101906103e991906122c8565b611c66565b6040516103fb9190612281565b60405180910390f35b61041e600480360381019061041991906122c8565b611d1b565b60405161042b9190612281565b60405180910390f35b61043c611dd0565b005b6004818154811061044e57600080fd5b906000526020600020016000915054906101000a900473ffffffffffffffffffffffffffffffffffffffff1681565b6000600260009054906101000a900473ffffffffffffffffffffffffffffffffffffffff1673ffffffffffffffffffffffffffffffffffffffff163373ffffffffffffffffffffffffffffffffffffffff161461050f576040517f08c379a00000000000000000000000000000000000000000000000000000000081526004016105069061280f565b60405180910390fd5b6105176108bc565b15610557576040517f08c379a000000000000000000000000000000000000000000000000000000000815260040161054e9061287b565b60405180910390fd5b60008080600090505b60008054905081101561064e5760008082815481106105825761058161289b565b5b9060005260206000209060040201600301541180156105c5575082600082815481106105b1576105b061289b565b5b906000526020600020906004020160030154115b1561063b57600081815481106105de576105dd61289b565b5b9060005260206000209060040201600301549250600081815481106106065761060561289b565b5b906000526020600020906004020160000160009054906101000a900473ffffffffffffffffffffffffffffffffffffffff1691505b8080610646906128f9565b915050610560565b50809250505090565b600260009054906101000a900473ffffffffffffffffffffffffffffffffffffffff1673ffffffffffffffffffffffffffffffffffffffff163373ffffffffffffffffffffffffffffffffffffffff16146106e7576040517f08c379a00000000000000000000000000000000000000000000000000000000081526004016106de9061280f565b60405180910390fd5b6106ef6108bc565b1561072f576040517f08c379a0000000000000000000000000000000000000000000000000000000008152600401610726906129b3565b60405180910390fd5b6001600660006101000a81548160ff021916908315150217905550565b6000818154811061075c57600080fd5b90600052602060002090600402016000915090508060000160009054906101000a900473ffffffffffffffffffffffffffffffffffffffff16908060010180546107a590612a02565b80601f01602080910402602001604051908101604052809291908181526020018280546107d190612a02565b801561081e5780601f106107f35761010080835404028352916020019161081e565b820191906000526020600020905b81548152906001019060200180831161080157829003601f168201915b50505050509080600201805461083390612a02565b80601f016020809104026020016040519081016040528092919081815260200182805461085f90612a02565b80156108ac5780601f10610881576101008083540402835291602001916108ac565b820191906000526020600020905b81548152906001019060200180831161088f57829003601f168201915b5050505050908060030154905084565b6000600660009054906101000a900460ff16905090565b6108db6108bc565b61091a576040517f08c379a000000000000000000000000000000000000000000000000000000000815260040161091190612aa5565b60405180910390fd5b61092333610ac8565b610962576040517f08c379a000000000000000000000000000000000000000000000000000000000815260040161095990612b37565b60405180910390fd5b61096b33610a72565b156109ab576040517f08c379a00000000000000000000000000000000000000000000000000000000081526004016109a290612ba3565b60405180910390fd5b6109b481611ec4565b6004339080600181540180825580915050600190039060005260206000200160009091909190916101000a81548173ffffffffffffffffffffffffffffffffffffffff021916908373ffffffffffffffffffffffffffffffffffffffff1602179055506001600360003373ffffffffffffffffffffffffffffffffffffffff1673ffffffffffffffffffffffffffffffffffffffff16815260200190815260200160002060006101000a81548160ff02191690831515021790555050565b6000600360008373ffffffffffffffffffffffffffffffffffffffff1673ffffffffffffffffffffffffffffffffffffffff16815260200190815260200160002060009054906101000a900460ff169050919050565b6000610ad382611c66565b610b12576040517f08c379a0000000000000000000000000000000000000000000000000000000008152600401610b0990612c35565b60405180910390fd5b60005b600180549050811015610bfa578273ffffffffffffffffffffffffffffffffffffffff1660018281548110610b4d57610b4c61289b565b5b906000526020600020906002020160010160009054906101000a900473ffffffffffffffffffffffffffffffffffffffff1673ffffffffffffffffffffffffffffffffffffffff16148015610bd857506001151560018281548110610bb557610bb461289b565b5b906000526020600020906002020160010160149054906101000a900460ff161515145b15610be7576001915050610c00565b8080610bf2906128f9565b915050610b15565b50600090505b919050565b6060600260009054906101000a900473ffffffffffffffffffffffffffffffffffffffff1673ffffffffffffffffffffffffffffffffffffffff163373ffffffffffffffffffffffffffffffffffffffff1614610c97576040517f08c379a0000000000000000000000000000000000000000000000000000000008152600401610c8e9061280f565b60405180910390fd5b610c9f6108bc565b15610cdf576040517f08c379a0000000000000000000000000000000000000000000000000000000008152600401610cd690612ca1565b60405180910390fd5b600080610cec9190611fa3565b60005b600480549050811015610da55760006003600060048481548110610d1657610d1561289b565b5b9060005260206000200160009054906101000a900473ffffffffffffffffffffffffffffffffffffffff1673ffffffffffffffffffffffffffffffffffffffff1673ffffffffffffffffffffffffffffffffffffffff16815260200190815260200160002060006101000a81548160ff0219169083151502179055508080610d9d906128f9565b915050610cef565b5060006005819055506000600660006101000a81548160ff02191690831515021790555060046000610dd79190611fc7565b6040518060600160405280603281526020016135cf60329139905090565b610dfd6108bc565b15610e3d576040517f08c379a0000000000000000000000000000000000000000000000000000000008152600401610e3490612d33565b60405180910390fd5b610e4681611c66565b15610e86576040517f08c379a0000000000000000000000000000000000000000000000000000000008152600401610e7d90612dc5565b60405180910390fd5b6001604051806060016040528085858080601f016020809104026020016040519081016040528093929190818152602001838380828437600081840152601f19601f8201169050808301925050505050505081526020018373ffffffffffffffffffffffffffffffffffffffff1681526020016000151581525090806001815401808255809150506001900390600052602060002090600202016000909190919091506000820151816000019081610f3e9190612fc0565b5060208201518160010160006101000a81548173ffffffffffffffffffffffffffffffffffffffff021916908373ffffffffffffffffffffffffffffffffffffffff16021790555060408201518160010160146101000a81548160ff0219169083151502179055505050505050565b600660009054906101000a900460ff1681565b600260009054906101000a900473ffffffffffffffffffffffffffffffffffffffff1673ffffffffffffffffffffffffffffffffffffffff163373ffffffffffffffffffffffffffffffffffffffff1614611050576040517f08c379a00000000000000000000000000000000000000000000000000000000081526004016110479061280f565b60405180910390fd5b6110586108bc565b15611098576040517f08c379a000000000000000000000000000000000000000000000000000000000815260040161108f90613104565b60405180910390fd5b6110a181611c66565b6110e0576040517f08c379a00000000000000000000000000000000000000000000000000000000081526004016110d790613170565b60405180910390fd5b60005b6001805490508110156111bd578173ffffffffffffffffffffffffffffffffffffffff166001828154811061111b5761111a61289b565b5b906000526020600020906002020160010160009054906101000a900473ffffffffffffffffffffffffffffffffffffffff1673ffffffffffffffffffffffffffffffffffffffff16036111aa57600180828154811061117d5761117c61289b565b5b906000526020600020906002020160010160146101000a81548160ff0219169083151502179055506111bd565b80806111b5906128f9565b9150506110e3565b506000600360008373ffffffffffffffffffffffffffffffffffffffff1673ffffffffffffffffffffffffffffffffffffffff16815260200190815260200160002060006101000a81548160ff02191690831515021790555050565b60606000805480602002602001604051908101604052809291908181526020016000905b828210156113f357838290600052602060002090600402016040518060800160405290816000820160009054906101000a900473ffffffffffffffffffffffffffffffffffffffff1673ffffffffffffffffffffffffffffffffffffffff1673ffffffffffffffffffffffffffffffffffffffff1681526020016001820180546112c690612a02565b80601f01602080910402602001604051908101604052809291908181526020018280546112f290612a02565b801561133f5780601f106113145761010080835404028352916020019161133f565b820191906000526020600020905b81548152906001019060200180831161132257829003601f168201915b5050505050815260200160028201805461135890612a02565b80601f016020809104026020016040519081016040528092919081815260200182805461138490612a02565b80156113d15780601f106113a6576101008083540402835291602001916113d1565b820191906000526020600020905b8154815290600101906020018083116113b457829003601f168201915b505050505081526020016003820154815250508152602001906001019061123d565b50505050905090565b60055481565b60036020528060005260406000206000915054906101000a900460ff1681565b60606001805480602002602001604051908101604052809291908181526020016000905b8282101561157b578382906000526020600020906002020160405180606001604052908160008201805461147990612a02565b80601f01602080910402602001604051908101604052809291908181526020018280546114a590612a02565b80156114f25780601f106114c7576101008083540402835291602001916114f2565b820191906000526020600020905b8154815290600101906020018083116114d557829003601f168201915b505050505081526020016001820160009054906101000a900473ffffffffffffffffffffffffffffffffffffffff1673ffffffffffffffffffffffffffffffffffffffff1673ffffffffffffffffffffffffffffffffffffffff1681526020016001820160149054906101000a900460ff16151515158152505081526020019060010190611446565b50505050905090565b600260009054906101000a900473ffffffffffffffffffffffffffffffffffffffff1673ffffffffffffffffffffffffffffffffffffffff163373ffffffffffffffffffffffffffffffffffffffff1614611614576040517f08c379a000000000000000000000000000000000000000000000000000000000815260040161160b9061280f565b60405180910390fd5b61161c6108bc565b1561165c576040517f08c379a000000000000000000000000000000000000000000000000000000000815260040161165390613202565b60405180910390fd5b61166581611d1b565b6116a4576040517f08c379a000000000000000000000000000000000000000000000000000000000815260040161169b90613294565b60405180910390fd5b60005b6000805490508110156118c9578173ffffffffffffffffffffffffffffffffffffffff16600082815481106116df576116de61289b565b5b906000526020600020906004020160000160009054906101000a900473ffffffffffffffffffffffffffffffffffffffff1673ffffffffffffffffffffffffffffffffffffffff16036118b6576000600160008054905061174091906132b4565b815481106117515761175061289b565b5b9060005260206000209060040201600082815481106117735761177261289b565b5b90600052602060002090600402016000820160009054906101000a900473ffffffffffffffffffffffffffffffffffffffff168160000160006101000a81548173ffffffffffffffffffffffffffffffffffffffff021916908373ffffffffffffffffffffffffffffffffffffffff160217905550600182018160010190816117fc91906132fe565b506002820181600201908161181191906132fe565b50600382015481600301559050506000805480611831576118306133e6565b5b6001900381819060005260206000209060040201600080820160006101000a81549073ffffffffffffffffffffffffffffffffffffffff021916905560018201600061187d9190611fe8565b60028201600061188d9190611fe8565b600382016000905550509055600560008154809291906118ac90613415565b91905055506118c9565b80806118c1906128f9565b9150506116a7565b5050565b600181815481106118dd57600080fd5b906000526020600020906002020160009150905080600001805461190090612a02565b80601f016020809104026020016040519081016040528092919081815260200182805461192c90612a02565b80156119795780601f1061194e57610100808354040283529160200191611979565b820191906000526020600020905b81548152906001019060200180831161195c57829003601f168201915b5050505050908060010160009054906101000a900473ffffffffffffffffffffffffffffffffffffffff16908060010160149054906101000a900460ff16905083565b600260009054906101000a900473ffffffffffffffffffffffffffffffffffffffff1673ffffffffffffffffffffffffffffffffffffffff163373ffffffffffffffffffffffffffffffffffffffff1614611a4c576040517f08c379a0000000000000000000000000000000000000000000000000000000008152600401611a439061280f565b60405180910390fd5b611a546108bc565b15611a94576040517f08c379a0000000000000000000000000000000000000000000000000000000008152600401611a8b906134b0565b60405180910390fd5b611a9d85611d1b565b15611add576040517f08c379a0000000000000000000000000000000000000000000000000000000008152600401611ad49061351c565b60405180910390fd5b60056000815480929190611af0906128f9565b9190505550600060405180608001604052808773ffffffffffffffffffffffffffffffffffffffff16815260200186868080601f016020809104026020016040519081016040528093929190818152602001838380828437600081840152601f19601f82011690508083019250505050505050815260200184848080601f016020809104026020016040519081016040528093929190818152602001838380828437600081840152601f19601f8201169050808301925050505050505081526020016000815250908060018154018082558091505060019003906000526020600020906004020160009091909190915060008201518160000160006101000a81548173ffffffffffffffffffffffffffffffffffffffff021916908373ffffffffffffffffffffffffffffffffffffffff1602179055506020820151816001019081611c3c9190612fc0565b506040820151816002019081611c529190612fc0565b506060820151816003015550505050505050565b6000806000905060005b600180549050811015611d11578373ffffffffffffffffffffffffffffffffffffffff1660018281548110611ca857611ca761289b565b5b906000526020600020906002020160010160009054906101000a900473ffffffffffffffffffffffffffffffffffffffff1673ffffffffffffffffffffffffffffffffffffffff1603611cfe5760019150611d11565b8080611d09906128f9565b915050611c70565b5080915050919050565b6000806000905060005b600080549050811015611dc6578373ffffffffffffffffffffffffffffffffffffffff1660008281548110611d5d57611d5c61289b565b5b906000526020600020906004020160000160009054906101000a900473ffffffffffffffffffffffffffffffffffffffff1673ffffffffffffffffffffffffffffffffffffffff1603611db35760019150611dc6565b8080611dbe906128f9565b915050611d25565b5080915050919050565b600260009054906101000a900473ffffffffffffffffffffffffffffffffffffffff1673ffffffffffffffffffffffffffffffffffffffff163373ffffffffffffffffffffffffffffffffffffffff1614611e60576040517f08c379a0000000000000000000000000000000000000000000000000000000008152600401611e579061280f565b60405180910390fd5b611e686108bc565b611ea7576040517f08c379a0000000000000000000000000000000000000000000000000000000008152600401611e9e906135ae565b60405180910390fd5b6000600660006101000a81548160ff021916908315150217905550565b60005b600080549050811015611f9f578173ffffffffffffffffffffffffffffffffffffffff1660008281548110611eff57611efe61289b565b5b906000526020600020906004020160000160009054906101000a900473ffffffffffffffffffffffffffffffffffffffff1673ffffffffffffffffffffffffffffffffffffffff1603611f8c5760008181548110611f6057611f5f61289b565b5b90600052602060002090600402016003016000815480929190611f82906128f9565b9190505550611f9f565b8080611f97906128f9565b915050611ec7565b5050565b5080546000825560040290600052602060002090810190611fc49190612028565b50565b5080546000825590600052602060002090810190611fe5919061208e565b50565b508054611ff490612a02565b6000825580601f106120065750612025565b601f016020900490600052602060002090810190612024919061208e565b5b50565b5b8082111561208a57600080820160006101000a81549073ffffffffffffffffffffffffffffffffffffffff02191690556001820160006120699190611fe8565b6002820160006120799190611fe8565b600382016000905550600401612029565b5090565b5b808211156120a757600081600090555060010161208f565b5090565b600080fd5b600080fd5b6000819050919050565b6120c8816120b5565b81146120d357600080fd5b50565b6000813590506120e5816120bf565b92915050565b600060208284031215612101576121006120ab565b5b600061210f848285016120d6565b91505092915050565b600073ffffffffffffffffffffffffffffffffffffffff82169050919050565b600061214382612118565b9050919050565b61215381612138565b82525050565b600060208201905061216e600083018461214a565b92915050565b600081519050919050565b600082825260208201905092915050565b60005b838110156121ae578082015181840152602081019050612193565b60008484015250505050565b6000601f19601f8301169050919050565b60006121d682612174565b6121e0818561217f565b93506121f0818560208601612190565b6121f9816121ba565b840191505092915050565b61220d816120b5565b82525050565b6000608082019050612228600083018761214a565b818103602083015261223a81866121cb565b9050818103604083015261224e81856121cb565b905061225d6060830184612204565b95945050505050565b60008115159050919050565b61227b81612266565b82525050565b60006020820190506122966000830184612272565b92915050565b6122a581612138565b81146122b057600080fd5b50565b6000813590506122c28161229c565b92915050565b6000602082840312156122de576122dd6120ab565b5b60006122ec848285016122b3565b91505092915050565b6000602082019050818103600083015261230f81846121cb565b905092915050565b600080fd5b600080fd5b600080fd5b60008083601f84011261233c5761233b612317565b5b8235905067ffffffffffffffff8111156123595761235861231c565b5b60208301915083600182028301111561237557612374612321565b5b9250929050565b600080600060408486031215612395576123946120ab565b5b600084013567ffffffffffffffff8111156123b3576123b26120b0565b5b6123bf86828701612326565b935093505060206123d2868287016122b3565b9150509250925092565b600081519050919050565b600082825260208201905092915050565b6000819050602082019050919050565b61241181612138565b82525050565b600082825260208201905092915050565b600061243382612174565b61243d8185612417565b935061244d818560208601612190565b612456816121ba565b840191505092915050565b61246a816120b5565b82525050565b60006080830160008301516124886000860182612408565b50602083015184820360208601526124a08282612428565b915050604083015184820360408601526124ba8282612428565b91505060608301516124cf6060860182612461565b508091505092915050565b60006124e68383612470565b905092915050565b6000602082019050919050565b6000612506826123dc565b61251081856123e7565b935083602082028501612522856123f8565b8060005b8581101561255e578484038952815161253f85826124da565b945061254a836124ee565b925060208a01995050600181019050612526565b50829750879550505050505092915050565b6000602082019050818103600083015261258a81846124fb565b905092915050565b60006020820190506125a76000830184612204565b92915050565b600081519050919050565b600082825260208201905092915050565b6000819050602082019050919050565b6125e281612266565b82525050565b600060608301600083015184820360008601526126058282612428565b915050602083015161261a6020860182612408565b50604083015161262d60408601826125d9565b508091505092915050565b600061264483836125e8565b905092915050565b6000602082019050919050565b6000612664826125ad565b61266e81856125b8565b935083602082028501612680856125c9565b8060005b858110156126bc578484038952815161269d8582612638565b94506126a88361264c565b925060208a01995050600181019050612684565b50829750879550505050505092915050565b600060208201905081810360008301526126e88184612659565b905092915050565b6000606082019050818103600083015261270a81866121cb565b9050612719602083018561214a565b6127266040830184612272565b949350505050565b60008060008060006060868803121561274a576127496120ab565b5b6000612758888289016122b3565b955050602086013567ffffffffffffffff811115612779576127786120b0565b5b61278588828901612326565b9450945050604086013567ffffffffffffffff8111156127a8576127a76120b0565b5b6127b488828901612326565b92509250509295509295909350565b7f4f6e6c79204f776e657220697320416c6c6f7765642100000000000000000000600082015250565b60006127f960168361217f565b9150612804826127c3565b602082019050919050565b60006020820190508181036000830152612828816127ec565b9050919050565b7f566f74696e67206973207374696c6c204f6e676f696e67210000000000000000600082015250565b600061286560188361217f565b91506128708261282f565b602082019050919050565b6000602082019050818103600083015261289481612858565b9050919050565b7f4e487b7100000000000000000000000000000000000000000000000000000000600052603260045260246000fd5b7f4e487b7100000000000000000000000000000000000000000000000000000000600052601160045260246000fd5b6000612904826120b5565b91507fffffffffffffffffffffffffffffffffffffffffffffffffffffffffffffffff8203612936576129356128ca565b5b600182019050919050565b7f596f752063616e6e6f7420737461727420766f74696e6720626563617573652060008201527f766f74696e6720697320616c7265616479204f6e676f696e67206e6f77210000602082015250565b600061299d603e8361217f565b91506129a882612941565b604082019050919050565b600060208201905081810360008301526129cc81612990565b9050919050565b7f4e487b7100000000000000000000000000000000000000000000000000000000600052602260045260246000fd5b60006002820490506001821680612a1a57607f821691505b602082108103612a2d57612a2c6129d3565b5b50919050565b7f596f752063616e277420766f7465206265636175736520766f74696e6720697360008201527f206e6f74206c697665206e6f7721000000000000000000000000000000000000602082015250565b6000612a8f602e8361217f565b9150612a9a82612a33565b604082019050919050565b60006020820190508181036000830152612abe81612a82565b9050919050565b7f596f7520646f6e27742068617665207065726d697373696f6e20746f20766f7460008201527f6521000000000000000000000000000000000000000000000000000000000000602082015250565b6000612b2160228361217f565b9150612b2c82612ac5565b604082019050919050565b60006020820190508181036000830152612b5081612b14565b9050919050565b7f596f75206861766520616c726561647920766f74656421000000000000000000600082015250565b6000612b8d60178361217f565b9150612b9882612b57565b602082019050919050565b60006020820190508181036000830152612bbc81612b80565b9050919050565b7f596f7520617265206e6f742072656769737465726564207965742120506c7a2060008201527f5265676973746572206669727374212100000000000000000000000000000000602082015250565b6000612c1f60308361217f565b9150612c2a82612bc3565b604082019050919050565b60006020820190508181036000830152612c4e81612c12565b9050919050565b7f566f74696e67206973207374696c6c206f6e676f696e67000000000000000000600082015250565b6000612c8b60178361217f565b9150612c9682612c55565b602082019050919050565b60006020820190508181036000830152612cba81612c7e565b9050919050565b7f596f752063616e2774207265676973746572206265636175736520766f74696e60008201527f67206973204f6e676f696e67206e6f7721000000000000000000000000000000602082015250565b6000612d1d60318361217f565b9150612d2882612cc1565b604082019050919050565b60006020820190508181036000830152612d4c81612d10565b9050919050565b7f566f74657220697320616c7265616479206c697374656420696e20746865207660008201527f6f746572206c6973742100000000000000000000000000000000000000000000602082015250565b6000612daf602a8361217f565b9150612dba82612d53565b604082019050919050565b60006020820190508181036000830152612dde81612da2565b9050919050565b7f4e487b7100000000000000000000000000000000000000000000000000000000600052604160045260246000fd5b60008190508160005260206000209050919050565b60006020601f8301049050919050565b600082821b905092915050565b600060088302612e767fffffffffffffffffffffffffffffffffffffffffffffffffffffffffffffffff82612e39565b612e808683612e39565b95508019841693508086168417925050509392505050565b6000819050919050565b6000612ebd612eb8612eb3846120b5565b612e98565b6120b5565b9050919050565b6000819050919050565b612ed783612ea2565b612eeb612ee382612ec4565b848454612e46565b825550505050565b600090565b612f00612ef3565b612f0b818484612ece565b505050565b5b81811015612f2f57612f24600082612ef8565b600181019050612f11565b5050565b601f821115612f7457612f4581612e14565b612f4e84612e29565b81016020851015612f5d578190505b612f71612f6985612e29565b830182612f10565b50505b505050565b600082821c905092915050565b6000612f9760001984600802612f79565b1980831691505092915050565b6000612fb08383612f86565b9150826002028217905092915050565b612fc982612174565b67ffffffffffffffff811115612fe257612fe1612de5565b5b612fec8254612a02565b612ff7828285612f33565b600060209050601f83116001811461302a5760008415613018578287015190505b6130228582612fa4565b86555061308a565b601f19841661303886612e14565b60005b828110156130605784890151825560018201915060208501945060208101905061303b565b8683101561307d5784890151613079601f891682612f86565b8355505b6001600288020188555050505b505050505050565b7f596f752063616e27742076616c6964617465206265636175736520766f74696e60008201527f67206973206c697665206e6f7721000000000000000000000000000000000000602082015250565b60006130ee602e8361217f565b91506130f982613092565b604082019050919050565b6000602082019050818103600083015261311d816130e1565b9050919050565b7f566f746572206973206e6f742052656769737465726564205965742100000000600082015250565b600061315a601c8361217f565b915061316582613124565b602082019050919050565b600060208201905081810360008301526131898161314d565b9050919050565b7f596f752063616e6e6f742064656c6574652043616e646964617465206265636160008201527f75736520766f74696e67206973204f6e676f696e67206e6f7721000000000000602082015250565b60006131ec603a8361217f565b91506131f782613190565b604082019050919050565b6000602082019050818103600083015261321b816131df565b9050919050565b7f43616e646964617465206973206e6f742070726573656e7420696e207468652060008201527f63616e646964617465204c697374210000000000000000000000000000000000602082015250565b600061327e602f8361217f565b915061328982613222565b604082019050919050565b600060208201905081810360008301526132ad81613271565b9050919050565b60006132bf826120b5565b91506132ca836120b5565b92508282039050818111156132e2576132e16128ca565b5b92915050565b6000815490506132f781612a02565b9050919050565b81810361330c5750506133e4565b613315826132e8565b67ffffffffffffffff81111561332e5761332d612de5565b5b6133388254612a02565b613343828285612f33565b6000601f8311600181146133725760008415613360578287015490505b61336a8582612fa4565b8655506133dd565b601f19841661338087612e14565b965061338b86612e14565b60005b828110156133b35784890154825560018201915060018501945060208101905061338e565b868310156133d057848901546133cc601f891682612f86565b8355505b6001600288020188555050505b5050505050505b565b7f4e487b7100000000000000000000000000000000000000000000000000000000600052603160045260246000fd5b6000613420826120b5565b915060008203613433576134326128ca565b5b600182039050919050565b7f596f752063616e6e6f74206164642043616e646964617465206265636175736560008201527f20766f74696e67206973204f6e676f696e67206e6f7721000000000000000000602082015250565b600061349a60378361217f565b91506134a58261343e565b604082019050919050565b600060208201905081810360008301526134c98161348d565b9050919050565b7f43616e64696461746520697320616c72656164792070726573656e7421000000600082015250565b6000613506601d8361217f565b9150613511826134d0565b602082019050919050565b60006020820190508181036000830152613535816134f9565b9050919050565b7f596f752063616e6e6f742073746f7020766f74696e672062656361757365207660008201527f6f74696e6720697320616c72656164792073746f70206e6f7721000000000000602082015250565b6000613598603a8361217f565b91506135a38261353c565b604082019050919050565b600060208201905081810360008301526135c78161358b565b905091905056fe596f752063616e2053746172742074686520456c656374696f6e2066726f6d2074686520626567696e6e696e67206e6f7721a2646970667358221220980e42d8436b2b55a39e5edb25d8d67470ac45adb5fe2a89ee6878006fb3196a64736f6c63430008110033",
  "linkReferences": {},
  "deployedLinkReferences": {}
}